{
  "_format": "hh-sol-artifact-1",
  "contractName": "HelloWorld",
  "sourceName": "contracts/HelloWorld.sol",
  "abi": [
    {
      "inputs": [
        {
          "internalType": "string",
          "name": "initMessage",
          "type": "string"
        }
      ],
      "stateMutability": "nonpayable",
      "type": "constructor"
    },
    {
      "inputs": [
        {
          "internalType": "address",
          "name": "owner",
          "type": "address"
        }
      ],
      "name": "OwnableInvalidOwner",
      "type": "error"
    },
    {
      "inputs": [
        {
          "internalType": "address",
          "name": "account",
          "type": "address"
        }
      ],
      "name": "OwnableUnauthorizedAccount",
      "type": "error"
    },
    {
      "anonymous": false,
      "inputs": [
        {
          "indexed": true,
          "internalType": "address",
          "name": "previousOwner",
          "type": "address"
        },
        {
          "indexed": true,
          "internalType": "address",
          "name": "newOwner",
          "type": "address"
        }
      ],
      "name": "OwnershipTransferred",
      "type": "event"
    },
    {
      "anonymous": false,
      "inputs": [
        {
          "indexed": false,
          "internalType": "string",
          "name": "oldStr",
          "type": "string"
        },
        {
          "indexed": false,
          "internalType": "string",
          "name": "newStr",
          "type": "string"
        }
      ],
      "name": "UpdatedMessages",
      "type": "event"
    },
    {
      "inputs": [],
      "name": "message",
      "outputs": [
        {
          "internalType": "string",
          "name": "",
          "type": "string"
        }
      ],
      "stateMutability": "view",
      "type": "function"
    },
    {
      "inputs": [],
      "name": "owner",
      "outputs": [
        {
          "internalType": "address",
          "name": "",
          "type": "address"
        }
      ],
      "stateMutability": "view",
      "type": "function"
    },
    {
      "inputs": [],
      "name": "renounceOwnership",
      "outputs": [],
      "stateMutability": "nonpayable",
      "type": "function"
    },
    {
      "inputs": [
        {
          "internalType": "address",
          "name": "newOwner",
          "type": "address"
        }
      ],
      "name": "transferOwnership",
      "outputs": [],
      "stateMutability": "nonpayable",
      "type": "function"
    },
    {
      "inputs": [
        {
          "internalType": "string",
          "name": "newMessage",
          "type": "string"
        }
      ],
      "name": "update",
      "outputs": [],
      "stateMutability": "nonpayable",
      "type": "function"
    }
  ],
  "bytecode": "0x60806040523480156200001157600080fd5b50604051620011d4380380620011d483398181016040528101906200003791906200032f565b33600073ffffffffffffffffffffffffffffffffffffffff168173ffffffffffffffffffffffffffffffffffffffff1603620000ad5760006040517f1e4fbdf7000000000000000000000000000000000000000000000000000000008152600401620000a49190620003c5565b60405180910390fd5b620000be81620000d860201b60201c565b508060019081620000d091906200062d565b505062000714565b60008060009054906101000a900473ffffffffffffffffffffffffffffffffffffffff169050816000806101000a81548173ffffffffffffffffffffffffffffffffffffffff021916908373ffffffffffffffffffffffffffffffffffffffff1602179055508173ffffffffffffffffffffffffffffffffffffffff168173ffffffffffffffffffffffffffffffffffffffff167f8be0079c531659141344cd1fd0a4f28419497f9722a3daafe3b4186f6b6457e060405160405180910390a35050565b6000604051905090565b600080fd5b600080fd5b600080fd5b600080fd5b6000601f19601f8301169050919050565b7f4e487b7100000000000000000000000000000000000000000000000000000000600052604160045260246000fd5b6200020582620001ba565b810181811067ffffffffffffffff82111715620002275762000226620001cb565b5b80604052505050565b60006200023c6200019c565b90506200024a8282620001fa565b919050565b600067ffffffffffffffff8211156200026d576200026c620001cb565b5b6200027882620001ba565b9050602081019050919050565b60005b83811015620002a557808201518184015260208101905062000288565b60008484015250505050565b6000620002c8620002c2846200024f565b62000230565b905082815260208101848484011115620002e757620002e6620001b5565b5b620002f484828562000285565b509392505050565b600082601f830112620003145762000313620001b0565b5b815162000326848260208601620002b1565b91505092915050565b600060208284031215620003485762000347620001a6565b5b600082015167ffffffffffffffff811115620003695762000368620001ab565b5b6200037784828501620002fc565b91505092915050565b600073ffffffffffffffffffffffffffffffffffffffff82169050919050565b6000620003ad8262000380565b9050919050565b620003bf81620003a0565b82525050565b6000602082019050620003dc6000830184620003b4565b92915050565b600081519050919050565b7f4e487b7100000000000000000000000000000000000000000000000000000000600052602260045260246000fd5b600060028204905060018216806200043557607f821691505b6020821081036200044b576200044a620003ed565b5b50919050565b60008190508160005260206000209050919050565b60006020601f8301049050919050565b600082821b905092915050565b600060088302620004b57fffffffffffffffffffffffffffffffffffffffffffffffffffffffffffffffff8262000476565b620004c1868362000476565b95508019841693508086168417925050509392505050565b6000819050919050565b6000819050919050565b60006200050e620005086200050284620004d9565b620004e3565b620004d9565b9050919050565b6000819050919050565b6200052a83620004ed565b62000542620005398262000515565b84845462000483565b825550505050565b600090565b620005596200054a565b620005668184846200051f565b505050565b5b818110156200058e57620005826000826200054f565b6001810190506200056c565b5050565b601f821115620005dd57620005a78162000451565b620005b28462000466565b81016020851015620005c2578190505b620005da620005d18562000466565b8301826200056b565b50505b505050565b600082821c905092915050565b60006200060260001984600802620005e2565b1980831691505092915050565b60006200061d8383620005ef565b9150826002028217905092915050565b6200063882620003e2565b67ffffffffffffffff811115620006545762000653620001cb565b5b6200066082546200041c565b6200066d82828562000592565b600060209050601f831160018114620006a5576000841562000690578287015190505b6200069c85826200060f565b8655506200070c565b601f198416620006b58662000451565b60005b82811015620006df57848901518255600182019150602085019450602081019050620006b8565b86831015620006ff5784890151620006fb601f891682620005ef565b8355505b6001600288020188555050505b505050505050565b610ab080620007246000396000f3fe608060405234801561001057600080fd5b50600436106100575760003560e01c80633d7403a31461005c578063715018a6146100785780638da5cb5b14610082578063e21f37ce146100a0578063f2fde38b146100be575b600080fd5b610076600480360381019061007191906105bc565b6100da565b005b6100806101be565b005b61008a6101d2565b6040516100979190610646565b60405180910390f35b6100a86101fb565b6040516100b591906106e0565b60405180910390f35b6100d860048036038101906100d3919061072e565b610289565b005b6100e261030f565b6000600180546100f19061078a565b80601f016020809104026020016040519081016040528092919081815260200182805461011d9061078a565b801561016a5780601f1061013f5761010080835404028352916020019161016a565b820191906000526020600020905b81548152906001019060200180831161014d57829003601f168201915b5050505050905081600190816101809190610971565b507ff91d506d7335e83e4869a58cd98e0557cdcef6f507ba1e52725521305626d05b81836040516101b2929190610a43565b60405180910390a15050565b6101c661030f565b6101d06000610396565b565b60008060009054906101000a900473ffffffffffffffffffffffffffffffffffffffff16905090565b600180546102089061078a565b80601f01602080910402602001604051908101604052809291908181526020018280546102349061078a565b80156102815780601f1061025657610100808354040283529160200191610281565b820191906000526020600020905b81548152906001019060200180831161026457829003601f168201915b505050505081565b61029161030f565b600073ffffffffffffffffffffffffffffffffffffffff168173ffffffffffffffffffffffffffffffffffffffff16036103035760006040517f1e4fbdf70000000000000000000000000000000000000000000000000000000081526004016102fa9190610646565b60405180910390fd5b61030c81610396565b50565b61031761045a565b73ffffffffffffffffffffffffffffffffffffffff166103356101d2565b73ffffffffffffffffffffffffffffffffffffffff16146103945761035861045a565b6040517f118cdaa700000000000000000000000000000000000000000000000000000000815260040161038b9190610646565b60405180910390fd5b565b60008060009054906101000a900473ffffffffffffffffffffffffffffffffffffffff169050816000806101000a81548173ffffffffffffffffffffffffffffffffffffffff021916908373ffffffffffffffffffffffffffffffffffffffff1602179055508173ffffffffffffffffffffffffffffffffffffffff168173ffffffffffffffffffffffffffffffffffffffff167f8be0079c531659141344cd1fd0a4f28419497f9722a3daafe3b4186f6b6457e060405160405180910390a35050565b600033905090565b6000604051905090565b600080fd5b600080fd5b600080fd5b600080fd5b6000601f19601f8301169050919050565b7f4e487b7100000000000000000000000000000000000000000000000000000000600052604160045260246000fd5b6104c982610480565b810181811067ffffffffffffffff821117156104e8576104e7610491565b5b80604052505050565b60006104fb610462565b905061050782826104c0565b919050565b600067ffffffffffffffff82111561052757610526610491565b5b61053082610480565b9050602081019050919050565b82818337600083830152505050565b600061055f61055a8461050c565b6104f1565b90508281526020810184848401111561057b5761057a61047b565b5b61058684828561053d565b509392505050565b600082601f8301126105a3576105a2610476565b5b81356105b384826020860161054c565b91505092915050565b6000602082840312156105d2576105d161046c565b5b600082013567ffffffffffffffff8111156105f0576105ef610471565b5b6105fc8482850161058e565b91505092915050565b600073ffffffffffffffffffffffffffffffffffffffff82169050919050565b600061063082610605565b9050919050565b61064081610625565b82525050565b600060208201905061065b6000830184610637565b92915050565b600081519050919050565b600082825260208201905092915050565b60005b8381101561069b578082015181840152602081019050610680565b60008484015250505050565b60006106b282610661565b6106bc818561066c565b93506106cc81856020860161067d565b6106d581610480565b840191505092915050565b600060208201905081810360008301526106fa81846106a7565b905092915050565b61070b81610625565b811461071657600080fd5b50565b60008135905061072881610702565b92915050565b6000602082840312156107445761074361046c565b5b600061075284828501610719565b91505092915050565b7f4e487b7100000000000000000000000000000000000000000000000000000000600052602260045260246000fd5b600060028204905060018216806107a257607f821691505b6020821081036107b5576107b461075b565b5b50919050565b60008190508160005260206000209050919050565b60006020601f8301049050919050565b600082821b905092915050565b60006008830261081d7fffffffffffffffffffffffffffffffffffffffffffffffffffffffffffffffff826107e0565b61082786836107e0565b95508019841693508086168417925050509392505050565b6000819050919050565b6000819050919050565b600061086e6108696108648461083f565b610849565b61083f565b9050919050565b6000819050919050565b61088883610853565b61089c61089482610875565b8484546107ed565b825550505050565b600090565b6108b16108a4565b6108bc81848461087f565b505050565b5b818110156108e0576108d56000826108a9565b6001810190506108c2565b5050565b601f821115610925576108f6816107bb565b6108ff846107d0565b8101602085101561090e578190505b61092261091a856107d0565b8301826108c1565b50505b505050565b600082821c905092915050565b60006109486000198460080261092a565b1980831691505092915050565b60006109618383610937565b9150826002028217905092915050565b61097a82610661565b67ffffffffffffffff81111561099357610992610491565b5b61099d825461078a565b6109a88282856108e4565b600060209050601f8311600181146109db57600084156109c9578287015190505b6109d38582610955565b865550610a3b565b601f1984166109e9866107bb565b60005b82811015610a11578489015182556001820191506020850194506020810190506109ec565b86831015610a2e5784890151610a2a601f891682610937565b8355505b6001600288020188555050505b505050505050565b60006040820190508181036000830152610a5d81856106a7565b90508181036020830152610a7181846106a7565b9050939250505056fea2646970667358221220aa8464dd3b5f5221488333b304e9cef1aa3f4f10a46c6523f2e716145e87e7c364736f6c63430008180033",
  "linkReferences": {},
  "deployedLinkReferences": {}
}